:0300000002192BB7
:0C192B00787FE4F6D8FD75817B0219720C
:101ECF00C0F9A4B0999282F88090FF010204081023
:031EDF0020408020
:101C6B00C284C2A3E4FEED30E704D2828002C282BA
:101C7B0000D28400C28400ED25E0FD0EBE08E7E42F
:101C8B00FEEF30E704D2828002C28200D28400C20F
:101C9B008400EF25E0FF0EBE08E7D2A300C2A3002D
:011CAB002216
:101DFB00E4C39F50047E0180027E00C3EE64809496
:0D1E0B00895009EF901ED993FF121C6B2225
:101CE400AE05AC07E4C39C50047F0180027F00C3AF
:101CF400EF64809489501EEEC3940A5018EC901E31
:101D0400D993FFEE901ECF93300004547F80024499
:061D140080FD121C6B2291
:0D1F0400C282C284C2A37DFFE4FF021C6BF9
:061D8100C2B7C2B6D2B7E2
:101D8700E4FEC2B6EF30E004D2A18002C2A1D2B60F
:081D9700EFC313FF0EBE08EAC2
:011D9F002221
:101E3300E4FEC2B6EFC313FF30A10543078080035E
:091E430053077FD2B60EBE08E978
:011E4C002273
:0B1F1D00121D81AF05121D87C2B72204
:081F2800121D81121E33C2B725
:011F3000228E
:10000E00BCC600CBE300C6F700B3CCD0F2002B2069
:10001E00002F20002A20002D20003D20002E002D34
:10002E0000CEF7B0B2BDBBCDA8B4F3D1A700D0A11E
:10003E00D1A7C6DABCC6CBE3BBFACFEEC4BF00B3C2
:10004E00C9B9FBD5B9CABE002E2E2E2E2E2E2E2E9F
:10005E002E2E2E2E2E2E2E2E00B5DACAAEB0CBD7C9
:10006E00E900D7E9B3A4D5C5B5C2C8F300D7E9D422
:10007E00B1BDAFD0F1B6ABBAABECCFBABD00C1CE0D
:10008E00D2DDB7C92020D0ECB7E900C7EBB0B4D3AE
:10009E00D2B7BDCFF2BCFC00BDF8C8EBB3CCD0F2EA
:1000AE002020202000B9A6C4DCD1A1D4F100CEC2FC
:1000BE00B6C8BCC600CAB5CAB1CAB1BCE400BCC69B
:1000CE00CBE3C6F720202020002D2DCEC2B6C8BC13
:1000DE00C620202020002020CAB5CAB1CAB1BCE477
:1000EE00202020202020002020BCC6CBE3C6F720F5
:1000FE00202020002020CEC2B6C8BCC62020202042
:10010E00002D2DCAB5CAB1CAB1BCE42020202020D2
:10011E0020002D2DBCC6CBE3C6F720202020002DBD
:10012E002DC5DCB1ED202020202020002020B5E7B9
:10013E00D7D3C7D920202020202020200020202007
:10014E0020202020202020002020C5DCB1ED202002
:10015E0020202020002D2DB5E7D7D3C7D920202071
:10016E00202020202000A3BA0020202020202020A4
:10017E002000CAB5CAB1CEC2B6C8002E2000B1A8A2
:10018E00BEAFCEC2B6C800CAB1BCE4C9E8D6C30081
:10019E00D3D2BCFCA3BACFC2D2BBCEBB00C9CFBC9C
:1001AE00FCA3BAB8C4CAB1BCE400CFC2BCFCA3BAAB
:1001BE00C8B7B6A800B1A8BEAFCEC2B6C8C9E8D6F9
:1001CE00C300C9CFBCFCA3BAB8C4CEC2B6C800C067
:1001DE00F9A4B0999282F88090FFFF0102040810F2
:1001EE002040800000000000000000000000000021
:1001FE0000000000000000000000000000000000F1
:10020E0000000000000000000000000000000000E0
:10021E0000000000000000000000000000000000D0
:10022E0000000000000000000000000000000000C0
:10023E0000000000000000000000000000000000B0
:10024E0000000000000000000000000000000000A0
:10025E000000000000000000000000000000000090
:10026E000000000000000000000000000000000080
:10027E0000000000000000000001800E00000000E1
:10028E00000000000000000000180000C000000088
:10029E0000000000000000000040000218000000F6
:1002AE000000000000000000010000050400000036
:1002BE000000000000000000040C00088100000097
:1002CE00000000000000000008208017C0C00000E1
:1002DE000000000000000000101000004020000090
:1002EE0000000000000000004000231080100000FD
:1002FE00000000000000000000006338000800004D
:10030E00000000000000000080067FF9800400005D
:10031E0000000000000000016007800F8002000056
:10032E0000000000000000020066000190120000B4
:10033E00000000000000000040780000F8A9000056
:10034E0000000000000000040830014030280000CA
:10035E0000000000000000001B60256012208000DD
:10036E00000000000000000803C01D700F200000F8
:10037E000000000000000000018079580C004000D1
:10038E00000000000000001001007D480400400045
:10039E0000000000000000100F007D4407800000E8
:1003AE000000000000000010070000440380000061
:1003BE0000000000000000100203BFF7C2000000A2
:1003CE0000000000000000000203FFF70200200002
:1003DE0000000000000000000E00BFF003C020006F
:1003EE00000000000000000002001FC0038020007B
:1003FE00000000000000000002000FC002002000FC
:10040E00000000000000001007010FC003000000F4
:10041E0000000000000000100F001FE00780000029
:10042E00000000000000001001023FF00600400036
:10043E000000000000000000018041480C00400058
:10044E00000000000000000803C4E80E0E000000CB
:10045E000000000000000008035FE84E1E00800050
:10046E000000000000000004002216B030008000E2
:10047E000000000000000004007C0000F0010000FD
:10048E000000000000000002006C0001B00000003F
:10049E0000000000000000010007800700020000BD
:1004AE000000000000000001000EFCFB80040000B4
:1004BE00000000000000000080006731000800000E
:1004CE000000000000000000400067300010000037
:1004DE0000000000000000002000000000200000CE
:1004EE00000000000000000018000000884000001E
:1004FE000000000000000000040000000180000069
:10050E000000000000000000030080000200000058
:10051E00000000000000000000C0002008000000E5
:10052E00000000000000000000100000600000004D
:10053E0000000000000000000003000300000000A7
:10054E00000000000000000000001FE0000000009E
:10055E00000000000000000000000000000000008D
:10056E00000000000000000000000000000000007D
:10057E00000000000000000000000000000000006D
:10058E00000000000000000000000000000000005D
:10059E00000000000000000000000000000000004D
:1005AE00000000000000000000000000000000003D
:1005BE00000000000000000000000000000000002D
:1005CE00000000000000000000000000000000001D
:1005DE00000000000000000000000000000000000D
:0305EE000000000A
:101B0D00C104C103062B1301251114000E6E000034
:101B1D00000000000000000000000000022700008F
:101B2D000155010C56FCFCFCFCFDFDFDFDFDFDFD14
:101B3D00FE0C624378ABDB08335B81A5C7E705205C
:101B4D00203500C000F900A400B000990092008279
:101B5D0000F8008000900088008300C600A1008678
:021B6D00008EE8
:041D3D007F147E0091
:101D4100D3EF9400EE940040147D6E7C00ED1D7085
:0D1D5100011CED4C70F7EF1F70E61E80E3E3
:011D5E002262
:10189C007871E69001DD93FD7F801218E67873E68F
:1018AC0093FD7F401218E67D7F7F401218E6787515
:1018BC00E693FD7F201218E67877E693FD7F1012F1
:1018CC0018E67D7F7F101218E67879E693FD7F0885
:0A18DC001218E6787BE693FD7F0406
:1018E600E4FBFAC284ED30E704D2828002C282D2DF
:1018F60084ED25E0FD0BBB00010AEB64084A70E3AA
:10190600E4FAFBC284EF30E704D2828002C282D2BC
:1019160084EF25E0FF0BBB00010AEB64084A70E385
:04192600C2A3D2A3E3
:01192A00229A
:040D0900AF28AE273A
:040D0D008E0C8F0DAC
:100D1100E4F50EF50F12189C050FE50F7002050E94
:100D2100C394C8E50E940040ECE50C6003020F3D4E
:100D3100E50DB407004003020F3D900D42F828284D
:100D410073020D57020D6F020D9B020DDB020E2582
:100D5100020E80020EE5C3E50F9490E50E9401505A
:100D61000D12189C050FE50F7002050E80E8C3E512
:100D71000F9490E50E94014003020F3D9001E7E4CA
:100D810093FD7F801218E67873E69001DD1218ACAE
:100D9100050FE50F7002050E80D4C3E50F9490E5B1
:100DA1000E94014003020F3D7871E69001DD93FD41
:100DB1007F801218E69001E7E493FD7F401218E668
:100DC1007D7F7F401218E67875E69001DD1218BD2F
:100DD100050FE50F7002050E80C0C3E50F9490E585
:100DE1000E94014003020F3D7871E69001DD93FD01
:100DF1007F801218E67873E693FD7F401218E67D36
:100E01007F7F401218E69001E7E493FD7F201218DE
:100E1100E67877E69001DD1218C7050FE50F70023D
:100E2100050E80B6C3E50F9490E50E9401400302D0
:100E31000F3D7871E69001DD93FD7F801218E67811
:100E410073E693FD7F401218E67D7F7F401218E61E
:100E51007875E693FD7F201218E69001E7E493FD93
:100E61007F101218E67D7F7F101218E67879E690E0
:100E710001DD1218D8050FE50F7002050E80A5C31C
:100E8100E50F9490E50E94014003020F3D7871E661
:100E91009001DD93FD7F801218E67873E693FD7F64
:100EA100401218E67D7F7F401218E67875E693FDC3
:100EB1007F201218E67877E693FD7F101218E67D01
:100EC1007F7F101218E69001E7E493FD7F08121866
:100ED100E6787BE69001DD1218E2050FE50F70025E
:100EE100050E809BC3E50F9490E50E9401504D785B
:100EF10071E69001DD93FD7F801218E67873E69329
:100F0100FD7F401218E67D7F7F401218E67875E676
:100F110093FD7F201218E67877E693FD7F10121873
:100F2100E67879E693FD7F081218E69001E7E4126E
:0C0F310018E2050FE50F7002050E80A805
:010F3D002291
:1012AA00120D093093030213B1121D3D309303024C
:1012BA0013B10528E528700205276407452770053C
:1012CA00F527752801120D09309103021393121D97
:1012DA003D309103021393AF28EF25E0246FF806FF
:1012EA00E618700106E5276003021393E52824FE39
:1012FA00602714603914604B14605D14606F240514
:10130A006003021393EF25E0246FF9C3E7940319EE
:10131A00E794004074E5288067AF28EF25E0246F42
:10132A00F9C3E7940A19E79400405EEF8052AF28A8
:10133A00EF25E0246FF9C3E7940619E794004049C2
:10134A00EF803DAF28EF25E0246FF9C3E7940A192F
:10135A00E794004034EF8028AF28EF25E0246FF9A6
:10136A00C3E7940619E79400401FEF8013AF28EFF4
:10137A0025E0246FF9C3E7940A19E79400400AEFBD
:10138A0025E0246EF8E4F608F63091FD2092061264
:10139A001D3D3092183093030212CF121D3D309337
:1013AA00030212CF0212BC3093FD0212AA7F147EEE
:0413BA0000021D41CF
:0C167700E6FE08E6FF08E6FC08E6FD0BB6
:041683008C0C8D0D31
:10168700EE705BEFB40A005055901697F828287350
:101697000216E20216B50216BA0216BF0216C402F5
:1016A70016C90216CE0216D30216D80216DD750E1B
:1016B70010802B750E208026750E308021750E4008
:1016C700801C750E508017750E608012750E708025
:1016D7000D750E808008750E908003E4F50EE50CFD
:1016E7007052E50DB40A00504B9016F7F82828738E
:1016F70002173902171502171902171D02172102BF
:10170700172502172902172D0217310217357901FC
:1017170080227902801E7903801A79048016790560
:1017270080127906800E7907800A79088006790980
:0E1737008002E4F9E50E49FF742B2BF8A6079B
:011745002281
:101B7000E4FD7F8E121F1D7870E6FE08E6FF08E682
:101B8000FC08E6FD7B037A00121683787412167740
:101B90007878121677AD2B7F8C121F1DAD2C7F88A5
:101BA000121F1DAD2D7F86121F1DAD2E7F84121FAB
:101BB0001DAD2F7F82121F1DAD307F80121F1D7D36
:061BC000807F8E021F1D54
:101E64007F81121F288F217F83121F288F227F8555
:061E7400121F288F23223B
:101E18007580FFC2A7D2A6D2A500E580C41313130C
:0A1E2800540124FF9200C2A5A2009D
:011E3200228D
:101EE200121E1840FBC2A7C2A6D2A58F8000C2A5AF
:011EF20022CD
:101EF300121E1840FBD2A7C2A6D2A58F8000C2A58E
:011F030022BB
:101E7A00D2A47F30121EE27F0C121EE27F01121ED4
:061E8A00E27F06021EE2E9
:071F11007FE87E03121D4171
:051F18007F01021EE242
:101A3400AE16AF17FC7D0A1209468D13AE16AF170A
:101A44007C007D0A1209468F147BFF7A0079287D79
:031A540003E4FFA9
:101A5700AE07EEC394085043EDC39404503DED1414
:101A6700600F14601114601324037016EE44808015
:101A77000DEE44908008EE44888003EE4498FF12F0
:101A87001EE212091BFF6013121EF37F327E001243
:0C1A97001D41740129F9E43AFA80E722AD
:041C1B008E0E8F0F8B
:101C1F007F34121EE2121EE2E4FEE4FDED2480FF8B
:101C2F00121EE2EE70047F8080027F88121EE2E4B3
:101C3F00FC050FE50FAA0E7002050E14F5828A83BC
:101C4F00E493FF121EF30CBC10E70DBD20CE0EBEA9
:0C1C5F0002C87F36121EE27F30021EE237
:101E9000D3EF9400EE9400400B7D13DDFEEF1F7036
:041EA000EF1E80ECC5
:011EA400221B
:101DBF00D3EF9400EE940040147D657C18ED1D70F8
:0D1DCF00011CED4C70F7EF1F70E61E80E365
:011DDC0022E4
:061AA300C4540FFB7D029C
:101AA900EBB40A005055901AB6F8282873021AD4D4
:101AB900021AD9021ADE021AE3021AE8021AED0220
:101AC9001AF2021AF7021AFC021B01751830802B50
:101AD90075183180267518328021751833801C7568
:101AE900183480177518358012751836800D7518D9
:101AF90037800875183880037518397B007A0079A2
:041B090018021A574D
:100A2500E4F50CF50DF50EF50FF510F511F513F5CB
:100A350014F516F517C204C203F515751263121ED7
:100A45007A121D3D121F187FE87E03121D417BFFA0
:100A55007A00790EE4FD7F07121A577A0079117D25
:100A6500017F07121A577A0079147D027F07121A3F
:100A7500577A0079177D037F06121A577590F0850E
:100A8500900D530DF0E50D64F0600F75900F859096
:100A95000E530E0FE50D250EF50FE50F1209AA0BE6
:100AA50023770B0F7B0AFB7D0AE77E0B1EB70B0A2C
:100AB500BB0AF6BD0AE2BE0B19D70B05DB0AF1DD51
:100AC5000ADDDE0B14E70B00EB0AECED0AD8EE00AD
:100AD500000B26750C078049750C088044750C09B8
:100AE500803F750C0A803A750C048035750C0580BD
:100AF50030750C06802B750C0B8026750C0180213A
:100B0500750C02801C750C038017750C0C8012E4A3
:100B1500F50C800D750C0D8008750C0E8003750C99
:100B25000FE50CC394004029E50CD394095022E548
:100B350012B4630B850C10AB10E4FDFF121AA9E586
:100B4500126463600C850C11AB117D02E4FF121A6F
:100B5500A9E50CD394094044E50C640D603EE50C11
:100B6500640E6038850C12E50C24F66012146017CB
:100B750014601C24FD70257BFF7A00791C80167B90
:100B8500FF7A00791F800E7BFF7A00792280067B31
:100B9500FF7A0079257D01E4FF121A57200472E5DA
:100BA5000C640E706CE512B40A16D203E51075F0EC
:100BB5000AA4FFAEF0AD117C001209468E168F1700
:100BC500E512B40B0BE5108511F0A485F016F517A9
:100BD500E512640C702AE510C39511400DE51095DA
:100BE50011F517E49400F5168016E510C39511501C
:100BF5000FC3E5119510F517E49400F51675150169
:100C0500E512B40F0AE5102511F517E433F516D2F0
:100C150004E50C640E6003020CF430031C121A3454
:100C2500AB147D037F02121AA97BFF7A00792B7D15
:100C3500037F03121A57020C94E51564017058AE30
:100C450016AF17FC7D0A120946EF4E701C7BFF7A22
:100C55000079287D03FF121A577A00792D7D037FCD
:100C650002121A57AB17020CDCAE16AF177C007DCB
:100C750064120946EF4E7066121A347A00792D7D9A
:100C8500037F02121A57AB147D037F03121AA9AB17
:100C9500137D037F048044AE16AF177C007D0A12D6
:100CA5000946EF4E70147BFF7A0079287D03FF1209
:100CB5001A57AB177D037F028021AE16AF177C0054
:100CC5007D64120946EF4E7015121A34AB147D037C
:100CD5007F02121AA9AB137D037F03121AA97F881D
:100CE5007E13121D41121F187FE87E03021D41E588
:100CF5000C640D6003020A81C204C203F515751266
:040D050063020A81FA
:091BC6007A0079B3FD7BFF7F0278
:101BCF00AE07EEC394085043EDC39404503DED149B
:101BDF00600F14601114601324037016EE4480809C
:101BEF000DEE44908008EE44888003EE4498FF1277
:101BFF001EE212091BFF6013121EF37F057E0012F7
:0C1C0F001D41740129F9E43AFA80E72233
:10174600121E7A121D3DE4F50CF50D121F187FE8E6
:101756007E03121D417E017FF1121C1B121F117F99
:10176600E87E03121D417BFF7A00792FE4FDFF120C
:101776001A577A00793C7D01E4FF121A577A0079EC
:101786004D7D02E4FF121A577A007956121A531247
:101796001F117A007967E4FDFF121A577A007970F3
:1017A6007D01E4FF121A577A00797B7D02E4FF126D
:1017B6001A577A00798C121A537FD07E07121D4170
:1017C600121F187FE87E03121D41050DE50D7002FC
:1017D600050CC39402E50C940050030217517BFFDD
:1017E6007A0079997D017F01121A577A0079A67DD0
:1017F600027F02121A57121F182093E2121D3D2073
:0318060093DC224E
:1013BE008E0C8F0DE50D450C7024121BC67A00792C
:1013CE00BC7D017F01121BCF7A0079C37D027F01A4
:1013DE00121BCF7A0079CC7D037F010214C3E50D79
:1013EE006401450C7024121BC67A0079D77D01E486
:1013FE00FF121BCF7A0079E47D02E4FF121BCF7A35
:10140E000079F57D03E4FF0214C3E50D6402450C7B
:10141E007024121BC67A0179027D01E4FF121BCFE4
:10142E007A01790F7D02E4FF121BCF7A0079F57DE8
:10143E0003E4FF0214C3E50D6403450C7023121B75
:10144E00C67A0179027D01E4FF121BCF7A0079E49E
:10145E007D02E4FF121BCF7A0179207D03E4FF8029
:10146E0054E50D6404450C7023121BC67A01792DC8
:10147E007D01E4FF121BCF7A01793A7D02E4FF125F
:10148E001BCF7A01794B7D03E4FF8029E50D6405BE
:10149E00450C7024121BC67A0179567D01E4FF12A9
:1014AE001BCF7A0179637D02E4FF121BCF7A01799B
:0914BE004B7D03E4FF121BCF2259
:1019B700E4F50CF50D121E647A0079C37D01121B44
:1019C700CB7A0179747D027F02121BCF7A01797479
:1019D7007D027F05121BCFE523C4540FFB7D02E474
:1019E700FF121AA9E523540FFB7D027F01121AA9E2
:1019F700E5227F03121AA3E522540FFB7D027F0421
:101A0700121AA9E5217F06121AA3E521540FFB7DBF
:101A1700027F07121AA97BFF7A0179777D03E4FF1A
:0D1A2700121BCF7A017977E4FDFF021BCF7F
:071F3100AE071FEE70FA225B
:101DA000C2947FB4121F31D2947F14121F31209439
:0E1DB000047D018002E4FD7FA0121F31AF050B
:011DBE002202
:0C1CAC00121DA07F017E00121D417FCCA4
:021CB800AD0776
:101CBA00E4FCED30E00DC2947F01121F31D2947F13
:101CCA0014800BC2947F1C121F31D2947F01121F01
:091CDA0031EDC313FD0CBC08D967
:011CE30022DE
:101D1A00E4FDFCEDC313FDC2947F01121F31D2947E
:101D2A00003094034305807F19121F310CBC08E36D
:021D3A00AF05F3
:011D3C002284
:08000300121CAC7F44021CB882
:101E4D00121CAC7FBE121CB8121D1AAB077A001201
:061E5D001D1AEFFEAF03A9
:011E6300225C
:100F3E00E4F50CF50D121F187FE87E03121D417BA0
:100F4E00FF7A017980E4FD7F02121A57AB347D01DE
:100F5E007F05121AA97BFF7A0179897D017F041220
:100F6E001A57AB337D017F03121AA9AB327D017F75
:100F7E0002121AA97BFF7A01798C7D027F02121A66
:100F8E00577875E6FB7D037F05121AA97BFF7A0160
:100F9E0079897D037F04121A577873E6FB7D037FF0
:100FAE0003121AA97871E6FB7D037F02121AA9AC0F
:100FBE0034E41208667BCD7ACC79CC783D1206E902
:100FCE00C004C005C006C007E53275F00AA47C0057
:100FDE002533FDEC35F0FCE4120861D003D002D0CD
:100FEE0001D0001205F88F118E108D0F8C0E7874B3
:100FFE00E6FC08E6FDE41208617BCD7ACC79CC786C
:10100E003D1206E9C004C005C006C0077870E6FEB2
:10101E0008E6FF7C007D0A1209347872E6FC08E6C9
:10102E002FFDEE3CFCE4120861D003D002D001D0BB
:10103E00001205F8AB11AA10A90FA80E1207EF6047
:10104E00064004D2B48002C2B4C3E50D94D0E50CC0
:10105E009407400302115AE50D450C70031200036C
:10106E00E50D6464450C600302111E121E4DAC06A4
:10107E00AD07E4120861E4FBFA7980783D1206E9C7
:10108E008F158E148D138C12E4FFFE7D207C41ABE8
:10109E0015AA14A913A8121206E9E4FBFAF9783F6F
:1010AE001205F812089AAB07AA06C3EA6480948068
:1010BE00500C7531BFC3E49BFBE49AFA800D7C03A0
:1010CE007DE8AF03AE021209468F317C037DE8AF97
:1010DE0003AE02120946AA04AB057C007D64AF0381
:1010EE00AE021209468F327C007D64AF03AE02124F
:1010FE000946AA04AB057C007D0AAF03AE021209B5
:10110E00468F33AE02AF037C007D0A1209468D3442
:10111E00050DE50D7002050CD394B8E50C940B404B
:10112E0005E4F50CF50DE531B4BF047DBF8015E582
:10113E0031D39400400CC200AD317F04121CE40286
:0C114E0010577DFF7F04121DFB0210579C
:01115A002272
:1014C700E47870F608F608F608F608F608F608F65F
:1014D70008760A08F608760A08F608760AF527F560
:1014E70028120D09309303021598121D3D309303FE
:1014F7000215980528E5287002052764044527701A
:1015070005F527752801120D0920916A121D3D2046
:101517009164AF28EF25E0246FF806E618700106FE
:10152700E5277052E52824FE601B14602D24027005
:1015370045EF25E0246FF9C3E7940A19E7940040C3
:1015470035E5288028AF28EF25E0246FF9C3E79415
:101557000A19E79400401FEF8013AF28EF25E02416
:101567006FF9C3E7940A19E79400400AEF25E024CE
:101577006EF8E4F608F63091FD209206121D3D3014
:101587009215209381121D3D30930302150D02140D
:0E159700FA3093FD0214E87F147E00021D411D
:10180900D201C202D200E4F50CF50DF50EF9C202BF
:10181900E4751219F511F510F50F780F74FF120917
:101829008CEC4D4E4F601FE50D9001DD93FD7F80DF
:101839001218E6E50E93FD7F401218E6E993FD7F45
:10184900201218E680D4209102D200209202C20010
:10185900209302D20230002BB90904050E79FFE565
:101869000EB40A0AB9FF07050DE4F50E79FFE50D77
:10187900B40A0FE50EB40A0AB9FF07E4F50DF50E2F
:1018890079FF09300206E4F50DF50EF930900302EF
:03189900181722FB
:101EA500D3EF9400EE9400400B7D13DDFEEF1F7021
:041EB500EF1E80ECB0
:011EB9002206
:101DDD00D3EF9400EE940040147D657C18ED1D70DA
:0D1DED00011CED4C70F7EF1F70E61E80E347
:011DFA0022C6
:101EBA00D3EF9400EE9400400B7D13DDFEEF1F700C
:041ECA00EF1E80EC9B
:011ECE0022F1
:1015A500758901D2AFC2A9D28C7590F0AC90530465
:1015B500F0EC64F070030216727F907E01121EA596
:1015C500EC64F060E4E59054F0FC43040F8C90AFBC
:1015D5009053070F5304F0EF2C1209AA16607716E3
:1015E5004C7B16387D16247E165BB71647BB163323
:1015F500BD161FBE1656D71642DB162EDD161ADE91
:101605001651E7163DEB1629ED1615EE000016638B
:1016150075550180497555028044755503803F75A0
:101625005504803A755505803575550680307555D4
:1016350007802B7555088026755509802175550A33
:10164500801C75550B801775550C801275550D80CE
:101655000D75550E800875550F8003755510E555A8
:10166500D3940C4003C2A922D2A90215AEC2A90285
:0216750015AEB0
:03000B00021D5F74
:101D5F00C0E0C0D075D000C00074552555F8E6F529
:101D6F008C74612555F8E6F58AB2B5D000D0D0D085
:021D7F00E03250
:10115B00E4F508F509C2B4121746121F117FE87E99
:10116B0003121D417BFF7A017995E4FD7F02121B6F
:10117B00CF7A01799E7D01E4FF121BCF7A0179AB07
:10118B007D02E4FF121BCF7A0179B87D03E4FF12D5
:10119B001BCF7FE87E03121D411212AA121B701285
:1011AB001F187FE87E03121D417BFF7A0179C3E490
:1011BB00FD7F01121BCF7A01799E7D01E4FF121B8B
:1011CB00CF7A0179D07D02E4FF121BCF7A0179B877
:1011DB007D03E4FF121BCF7FE87E03121D41121427
:1011EB00C7121F187FE87E03121D41AF09AE08120C
:1011FB0013BE209220121D3D20921A0509E509709D
:10120B00020508640645087005F508750901AF0964
:10121B00AE081213BE3092FD209119121D3D209184
:10122B0013E509150970021508E50945087005F560
:10123B00087509053091FD20935F121D3D209359D0
:10124B00E4F50AF50BE5087044E50924FE60121479
:10125B00602A14602D14602F24047031120F3E800D
:10126B002CE50B450A7010121F187FE87E03121D28
:10127B0041750A00750B011219B78011120A25026C
:10128B0011F612180980061215A50211F62090B559
:0F129B00121D3D2090AF3090FD3093FD0211F6F3
:1005F100020906E86480F8E933E83360110460F029
:10060100ED33EC337009E8FCE9FDEAFEEBFF22046F
:1006110060DED3EB9FEA9EE99DE8C2E78CF0C2F76A
:1006210095F0400CE8CCF8E9CDF9EACEFAEBCFFB36
:100631001208D185D0F05804700320D5B3E80470B6
:10064100075002B2D502091092D5EC0460F7E4CC50
:10065100C0E0C398F8603B94186008400DD0E0FBFF
:100661000208E8E4FBFAC9FC8028E830E406E4C9A2
:10067100FBE4CAFCE830E305E4C9CACBFCE8540753
:100681006010F8C3E913F9EA13FAEB13FBEC13FC5E
:10069100D8F130F52FC3E49CFCEF9BFFEE9AFEED01
:1006A10099FDD0E0FBEF4E4D4C701222DB030209A5
:1006B1000DEC2CFCEF33FFEE33FEED33FDED30E7B7
:1006C100EB0208E8EF2BFFEE3AFEED39FDD0E0FB3F
:1006D10050130BBB0003020910ED13FDEE13FEEFE7
:0806E10013FFEC13FC0208E812
:1006E900EC4D6011E8497017ED33EC3304600DE40B
:1006F900FCFFFEFD22E933E8330470F80209061213
:1007090008D158046009E4CC248150062850090214
:10071900091028400302090DC0E0EB4A7044B98072
:1007290006D0E0FB0208FCEF4E701CBD8008EBFF11
:10073900EAFEE9FD80EBE98DF0A4FEE5F00207D2BF
:10074900E9CDF9EAFEEBFFEF89F0A4FCE5F0CE89EB
:10075900F0A42EFFE435F0CD89F0A42DFEE435F0A8
:100769008067EF4E7005BD80D780C3EF8BF0A4ACD6
:10077900F0EE8BF0A42CFCE435F0F8EF8AF0A42C11
:10078900E5F038FCE433CB8DF0A42CFCE5F03BF824
:10079900EE8AF0A42CFCE5F038F8E433CF89F0A414
:1007A9002CFCE5F038CF3400CE89F0A42FFFE5F01A
:1007B9003EFEE433C98DF0A42EFEE5F039CD8AF072
:1007C900A42FFFE5F03EFEE43DFD33D0E0FB5007EA
:1007D9000BBB000F020910EC2CFCEF33FFEE33FECC
:0607E900ED33FD0208E8FB
:1007EF0074F8CC6480CCC86480C8F582046043C3BD
:1007FF00EB9FF5F0EA9E42F0E99D42F0E89C45F050
:10080F0060305018E5825FFFE582F42B5582FB5074
:10081F00210ABA001D09B90019088016E5825BFB91
:10082F00E582F42F5582FF50090EBE00050DBD0065
:10083F00010CC3EB9FF5F0EA9E42F0E99D42F0E810
:0D084F009C45F06007CC4820E701B3EC2287
:10085C0075F020800E75F010800575F0087D007E17
:10086C00007F003392D530D50312097CEC33401055
:10087C00EF33FFEE33FEED33FDEC33FCD5F0ED2220
:0E088C00E5F0247EA2D513CC92E7CDCEFF225C
:10089A00EDD2E7CD33EC3392D524814006E4FFFE56
:1008AA00FDFC22FCE4CFCECDCC24E0501174FF80B5
:1008BA00EDC3CC13CCCD13CDCE13CECF13CF047052
:0708CA00F030D5DE02097CCD
:1008D100E9D2E7C933E833F892D5EDD2E7CD33EC6D
:0708E10033FC5002B2D522E6
:1008E800EC30E7100FBF000C0EBE00080DBD000471
:1008F8000BEB6014A2D5EB13FCED92E7FD2274FF1D
:10090800FCFDFEFF22E480F8A2D574FF13FC7D8075
:03091800E480EF89
:1019370002115BE493A3F8E493A34003F68001F25A
:1019470008DFF48029E493A3F85407240CC8C333B1
:10195700C4540F4420C8834004F456800146F6DF80
:10196700E4800B0102040810204080901B0DE47EE8
:10197700019360BCA3FF543F30E509541FFEE49375
:10198700A360010ECF54C025E060A840B8E493A33C
:10199700FAE493A3F8E493A3C8C582C8CAC583CA67
:1019A700F0A3C8C582C8CAC583CADFE9DEE780BE1F
:011B6F000075
:10091B00BB010689828A83E0225002E722BBFE02DA
:09092B00E32289828A83E493220D
:10093400EF8DF0A4A8F0CF8CF0A428CE8DF0A42ED7
:02094400FE2291
:10094600C2D5EC30E709B2D5E4C39DFDE49CFCEECC
:1009560030E715B2D5E4C39FFFE49EFE1209D0C36B
:10096600E49DFDE49CFC80031209D030D507C3E466
:060976009FFFE49EFE223B
:0E097C00C3E49FFFE49EFEE49DFDE49CFC228C
:10098A007401FF3395E0FEFDFC080808E6CF2FF658
:10099A0018E6CE3EF618E6CD3DF618E6CC3CF62231
:1009AA00D083D082F8E4937012740193700DA3A3DC
:1009BA0093F8740193F5828883E4737402936860F0
:0609CA00EFA3A3A380DFF0
:1009D000BC000BBE0029EF8DF084FFADF022E4CC0B
:1009E000F875F008EF2FFFEE33FEEC33FCEE9DECD4
:1009F000984005FCEE9DFE0FD5F0E9E4CEFD22ED1A
:100A0000F8F5F0EE8420D21CFEADF075F008EF2F63
:100A1000FFED33FD4007985006D5F0F222C398FD54
:050A20000FD5F0EA22F1
:00000001FF
